:100000000C9434000C9449000C9449000C94490061
:100010000C9449000C9449000C9449000C9449003C
:100020000C9449000C9449000C9449000C9449002C
:100030000C9449000C9449000C9449000C9449001C
:100040000C9449000C9449000C9449000C9449000C
:100050000C9449000C9449000C9449000C944900FC
:100060000C9449000C94490011241FBECFEFD8E036
:10007000DEBFCDBF11E0A0E0B1E0E0E0F1E002C002
:1000800005900D92A031B107D9F70E944B000C9456
:100090007E000C940000DF93CF93CDB7DEB760975E
:1000A0000FB6F894DEBF0FBECDBFDE011196E0E0C3
:1000B000F1E080E101900D928150E1F78FEF8AB974
:1000C00040E050E0DE01119660ED77E010C0EBB942
:1000D000CB010197F1F72F5F3F4F24363105B9F778
:1000E0004F5F5F4F4031510514F040E050E0FD019B
:1000F000E40FF51FE08120E030E0E9CFF894FFCF76
:100100003F065B4F666D7D077F6F777C395E797147
:00000001FF
