:100000000C9434000C9449000C9449000C94490061
:100010000C9449000C9449000C9449000C9449003C
:100020000C9449000C9449000C9449000C9449002C
:100030000C9449000C9449000C9449000C9449001C
:100040000C9449000C9449000C9449000C9449000C
:100050000C9449000C9449000C9449000C944900FC
:100060000C9449000C94490011241FBECFEFD8E036
:10007000DEBFCDBF11E0A0E0B1E0EEEFF1E002C0E5
:1000800005900D92AC31B107D9F70E94C9000C94CC
:10009000FD000C94000094E095B98BB984EF91E0D9
:1000A00028EC30E0F9013197F1F70197D9F715B84D
:1000B00084EF91E028EC30E0F9013197F1F70197F6
:1000C000D9F7089588E390E00E944B0084EF91E017
:1000D00028EC30E0F9013197F1F70197D9F781E089
:1000E00090E00E944B0084EF91E028EC30E0F901B1
:1000F0003197F1F70197D9F78EE090E00E944B001D
:1001000084EF91E028EC30E0F9013197F1F70197A5
:10011000D9F780E890E00E944B0084EF91E028EC52
:1001200030E0F9013197F1F70197D9F7089595E09B
:1001300095B98BB984EF91E028EC30E0F901319763
:10014000F1F70197D9F781E085B984EF91E028ECC8
:1001500030E0F9013197F1F70197D9F708950F933E
:100160001F93CF93DF93EC0108EC10E00AC00E94CC
:10017000970088EE93E0F8013197F1F70197D9F7EE
:1001800021968881882399F7DF91CF911F910F9154
:1001900008958AB18FEF8AB984B1876084B90E94CB
:1001A000620088EE93E028EC30E0F9013197F1F736
:1001B0000197D9F780E091E00E94AF0088E893E1D1
:1001C00028EC30E0F9013197F1F70197D9F780EC8D
:1001D0000E944B008BE091E00E94AF0088E893E121
:1001E00028EC30E0F9013197F1F70197D9F78FE06A
:0E01F0000E944B0080E090E00895F894FFCF4D
:1001FE0077656C636F6D6520746F0061746D6567F4
:0C020E006120776F726B73686F700000E6
:00000001FF
