:100000000C9434000C9449000C9449000C94490061
:100010000C9449000C9449000C9449000C9449003C
:100020000C9449000C9449000C9449000C9449002C
:100030000C9449000C9449000C9449000C9449001C
:100040000C9449000C9449000C9449000C9449000C
:100050000C9449000C9449000C9449000C944900FC
:100060000C9449000C94490011241FBECFEFD8E036
:10007000DEBFCDBF11E0A0E0B1E0E6E0F3E002C0FA
:1000800005900D92A233B107D9F70E94F2000C94AB
:1000900081010C94000084E085B988E38BB980ED80
:1000A00097E0FC013197F1F715B80197F1F784EF6C
:1000B00091E028EC30E0F9013197F1F70197D9F799
:1000C00084E085B981E08BB980ED97E0FC01319740
:1000D000F1F715B80197F1F784EF91E028EC30E0E3
:1000E000F9013197F1F70197D9F784E085B98EE0EE
:1000F0008BB980ED97E0FC013197F1F715B80197C6
:10010000F1F784EF91E028EC30E0F9013197F1F755
:100110000197D9F784E085B980E88BB980ED97E045
:10012000FC013197F1F715B80197F1F784EF91E0F1
:1001300028EC30E0F9013197F1F70197D9F70895EC
:1001400094E095B98BB980ED97E0FC013197F1F718
:1001500015B80197F1F7089595E095B995B98BB960
:1001600020ED37E0C9010197F1F781E085B9C901B8
:100170000197F1F70895FC0165E020ED37E071E0AB
:1001800040E25EE40DC065B965B98BB9C90101975C
:10019000F1F775B9C9010197F1F7CA010197F1F7B4
:1001A0008191882381F70895813069F4605884E053
:1001B00085B96BB980ED97E0FC013197F1F715B87F
:1001C0000197F1F70895823061F4605484E085B9B5
:1001D0006BB980ED97E0FC013197F1F715B8019705
:1001E000F1F70895AF92BF92DF92EF92FF920F93D3
:1001F0001F93CF93DF938AB18FEF8AB984B1876061
:1002000084B917B818B80E944B0088EE93E028EC28
:1002100030E0F9013197F1F70197D9F780E091E0EB
:100220000E94BB0018B881E060E00E94D4008CE01E
:1002300091E00E94BB0000E310E0C0E3D0E025E0C5
:10024000D22E90EDE92E97E0F92E88ECA82EB12C55
:1002500018B8C033D10509F181E06DE00E94D400E7
:10026000D5B8D5B8CBB9C7010197F1F781E085B909
:10027000C7010197F1F7CA33D10579F481E060E055
:100280000E94D40089E191E00E94BB0080E197E2E6
:10029000F5013197F1F70197D9F781E06EE00E94FF
:1002A000D400D5B8D5B80BB9C7010197F1F781E0F3
:1002B00085B9C7010197F1F788EE93E0F501319711
:1002C000F1F70197D9F70F5F1F4F0A33110519F4A2
:1002D000219600E310E03099BBCF81E060E00E94FE
:1002E000D40085E291E00E94BB0080E090E0DF91C5
:1002F000CF911F910F91FF90EF90DF90BF90AF9043
:060300000895F894FFCF00
:1003060050726573732053746172740054696D651D
:1003160020436F756E74203D0074696D6520636FB0
:10032600756E7420002D696E746572727570742D09
:020336002000A5
:00000001FF
