:100000000C9434000C9449000C9449000C94490061
:100010000C9449000C9449000C9449000C9449003C
:100020000C9449000C9449000C9449000C9449002C
:100030000C9449000C9449000C9449000C9449001C
:100040000C9449000C9449000C9449000C9449000C
:100050000C9449000C9449000C9449000C944900FC
:100060000C9449000C94490011241FBECFEFD8E036
:10007000DEBFCDBF11E0A0E0B1E0E4EBF5E002C0EF
:1000800005900D92A831B107D9F70E940E010C948A
:10009000D8020C94000084E085B988E38BB980ED28
:1000A00097E0FC013197F1F715B80197F1F784EF6C
:1000B00091E028EC30E0F9013197F1F70197D9F799
:1000C00084E085B981E08BB980ED97E0FC01319740
:1000D000F1F715B80197F1F784EF91E028EC30E0E3
:1000E000F9013197F1F70197D9F784E085B98EE0EE
:1000F0008BB980ED97E0FC013197F1F715B80197C6
:10010000F1F784EF91E028EC30E0F9013197F1F755
:100110000197D9F784E085B980E88BB980ED97E045
:10012000FC013197F1F715B80197F1F784EF91E0F1
:1001300028EC30E0F9013197F1F70197D9F70895EC
:1001400080E480937C0087E880937A000895809112
:100150007C00887F826080937C0080917A0080643C
:1001600080937A0080917A0086FDFCCF2091780000
:1001700030917900C901089594E095B98BB980ED6B
:1001800097E0FC013197F1F715B80197F1F7089561
:1001900095E095B995B98BB920ED37E0C901019784
:1001A000F1F781E085B9C9010197F1F70895FC01E4
:1001B00065E020ED37E071E040E25EE40DC065B936
:1001C00065B98BB9C9010197F1F775B9C9010197F3
:1001D000F1F7CA010197F1F78191882381F708951A
:1001E000813069F4605884E085B96BB980ED97E09F
:1001F000FC013197F1F715B80197F1F708958230B6
:1002000061F4605484E085B96BB980ED97E0FC013E
:100210003197F1F715B80197F1F70895CF92DF9272
:10022000FF920F931F93CF93DF9317B88AB18FEF8D
:100230008AB984B1876084B90E944B0080E48093BE
:100240007C0087E880937A0088EE93E028EC30E029
:10025000F9013197F1F70197D9F780E091E00E9419
:10026000D70088E893E128EC30E0F9013197F1F705
:100270000197D9F70E944B008DE091E00E94D700D2
:1002800098ECC92ED12C85E0F82E00ED17E081E026
:100290006BE00E94F0000E94A70028E833E1F6011D
:1002A0003197F1F721503040D1F7BC0180E090E068
:1002B0000E94C00120E030E040E05FE30E9426029F
:1002C0000E948F01DC01CB01EC016AE070E00E942A
:1002D000B102605D7F4F6033710579F0F5B8F5B814
:1002E0006BB9C8010197F1F781E085B9C8010197A1
:1002F000F1F781E06CE00E94F000CE016AE070E06E
:100300000E94B102C096F5B8F5B88BB9C801019743
:10031000F1F781E085B9C8010197F1F7B8CF04D0B2
:100320006894B1118DC0089570D088F09F5790F0F7
:10033000B92F9927B751A0F0D1F0660F771F881F0A
:10034000991F1AF0BA95C9F712C0B13081F077D071
:10035000B1E0089574C0672F782F8827B85F39F00F
:10036000B93FCCF3869577956795B395D9F73EF469
:1003700090958095709561957F4F8F4F9F4F089511
:10038000E89409C097FB3EF490958095709561952F
:100390007F4F8F4F9F4F9923A9F0F92F96E9BB27E5
:1003A0009395F695879577956795B795F111F8CF61
:1003B000FAF4BB0F11F460FF1BC06F5F7F4F8F4FCC
:1003C0009F4F16C0882311F096E911C0772321F0C2
:1003D0009EE8872F762F05C0662371F096E8862F5A
:1003E00070E060E02AF09A95660F771F881FDAF7B1
:1003F000880F9695879597F9089557FD9058440F63
:10040000551F59F05F3F71F04795880F97FB991F73
:1004100061F09F3F79F08795089512161306140630
:10042000551FF2CF4695F1DF08C0161617061806BD
:10043000991FF1CF86957105610508940895E89498
:10044000BB2766277727CB0197F908950BD078C093
:1004500069D028F06ED018F0952309F05AC05FC01B
:100460001124EECFCADFA0F3959FD1F3950F50E092
:10047000551F629FF001729FBB27F00DB11D639F56
:10048000AA27F00DB11DAA1F649F6627B00DA11DFC
:10049000661F829F2227B00DA11D621F739FB00DA2
:1004A000A11D621F839FA00D611D221F749F332712
:1004B000A00D611D231F849F600D211D822F762FAB
:1004C0006A2F11249F5750408AF0E1F088234AF0A8
:1004D000EE0FFF1FBB1F661F771F881F91505040F4
:1004E000A9F79E3F510570F014C0AACF5F3FECF30F
:1004F000983EDCF3869577956795B795F795E795E0
:100500009F5FC1F7FE2B880F911D9695879597F9F0
:10051000089597F99F6780E870E060E008959FEF85
:1005200080EC089500240A9416161706180609068A
:10053000089500240A941216130614060506089559
:10054000092E0394000C11F4882352F0BB0F40F4E1
:10055000BF2B11F460FF04C06F5F7F4F8F4F9F4F21
:10056000089597FB092E07260AD077FD04D00CD0FA
:1005700006D000201AF4709561957F4F0895F6F724
:10058000909581959F4F0895AA1BBB1B51E107C011
:10059000AA1FBB1FA617B70710F0A61BB70B881F13
:1005A000991F5A95A9F780959095BC01CD010895A2
:0405B000F894FFCFED
:1005B40054532041435449564154454400524F4FEB
:0805C4004D2054454D503D004F
:00000001FF
